{
  "_format": "hh-sol-artifact-1",
  "contractName": "Cryptdle",
  "sourceName": "contracts/cryptdle.sol",
  "abi": [
    {
      "inputs": [],
      "stateMutability": "nonpayable",
      "type": "constructor"
    },
    {
      "anonymous": false,
      "inputs": [
        {
          "indexed": true,
          "internalType": "address",
          "name": "owner",
          "type": "address"
        },
        {
          "indexed": true,
          "internalType": "address",
          "name": "spender",
          "type": "address"
        },
        {
          "indexed": false,
          "internalType": "uint256",
          "name": "value",
          "type": "uint256"
        }
      ],
      "name": "Approval",
      "type": "event"
    },
    {
      "anonymous": false,
      "inputs": [
        {
          "indexed": true,
          "internalType": "address",
          "name": "from",
          "type": "address"
        },
        {
          "indexed": true,
          "internalType": "address",
          "name": "to",
          "type": "address"
        },
        {
          "indexed": false,
          "internalType": "uint256",
          "name": "value",
          "type": "uint256"
        }
      ],
      "name": "Transfer",
      "type": "event"
    },
    {
      "inputs": [
        {
          "internalType": "address",
          "name": "owner",
          "type": "address"
        },
        {
          "internalType": "address",
          "name": "spender",
          "type": "address"
        }
      ],
      "name": "allowance",
      "outputs": [
        {
          "internalType": "uint256",
          "name": "",
          "type": "uint256"
        }
      ],
      "stateMutability": "view",
      "type": "function"
    },
    {
      "inputs": [
        {
          "internalType": "address",
          "name": "spender",
          "type": "address"
        },
        {
          "internalType": "uint256",
          "name": "amount",
          "type": "uint256"
        }
      ],
      "name": "approve",
      "outputs": [
        {
          "internalType": "bool",
          "name": "",
          "type": "bool"
        }
      ],
      "stateMutability": "nonpayable",
      "type": "function"
    },
    {
      "inputs": [
        {
          "internalType": "address",
          "name": "account",
          "type": "address"
        }
      ],
      "name": "balanceOf",
      "outputs": [
        {
          "internalType": "uint256",
          "name": "",
          "type": "uint256"
        }
      ],
      "stateMutability": "view",
      "type": "function"
    },
    {
      "inputs": [
        {
          "internalType": "uint256",
          "name": "_guess",
          "type": "uint256"
        },
        {
          "internalType": "address",
          "name": "_address",
          "type": "address"
        }
      ],
      "name": "claim",
      "outputs": [
        {
          "internalType": "bool",
          "name": "",
          "type": "bool"
        }
      ],
      "stateMutability": "nonpayable",
      "type": "function"
    },
    {
      "inputs": [],
      "name": "decimals",
      "outputs": [
        {
          "internalType": "uint8",
          "name": "",
          "type": "uint8"
        }
      ],
      "stateMutability": "view",
      "type": "function"
    },
    {
      "inputs": [
        {
          "internalType": "address",
          "name": "spender",
          "type": "address"
        },
        {
          "internalType": "uint256",
          "name": "subtractedValue",
          "type": "uint256"
        }
      ],
      "name": "decreaseAllowance",
      "outputs": [
        {
          "internalType": "bool",
          "name": "",
          "type": "bool"
        }
      ],
      "stateMutability": "nonpayable",
      "type": "function"
    },
    {
      "inputs": [],
      "name": "getHint",
      "outputs": [
        {
          "internalType": "uint256",
          "name": "",
          "type": "uint256"
        }
      ],
      "stateMutability": "view",
      "type": "function"
    },
    {
      "inputs": [],
      "name": "getReward",
      "outputs": [
        {
          "internalType": "uint256",
          "name": "",
          "type": "uint256"
        }
      ],
      "stateMutability": "view",
      "type": "function"
    },
    {
      "inputs": [
        {
          "internalType": "uint256",
          "name": "_guess",
          "type": "uint256"
        }
      ],
      "name": "guess",
      "outputs": [
        {
          "internalType": "bool",
          "name": "",
          "type": "bool"
        }
      ],
      "stateMutability": "view",
      "type": "function"
    },
    {
      "inputs": [
        {
          "internalType": "address",
          "name": "spender",
          "type": "address"
        },
        {
          "internalType": "uint256",
          "name": "addedValue",
          "type": "uint256"
        }
      ],
      "name": "increaseAllowance",
      "outputs": [
        {
          "internalType": "bool",
          "name": "",
          "type": "bool"
        }
      ],
      "stateMutability": "nonpayable",
      "type": "function"
    },
    {
      "inputs": [],
      "name": "name",
      "outputs": [
        {
          "internalType": "string",
          "name": "",
          "type": "string"
        }
      ],
      "stateMutability": "view",
      "type": "function"
    },
    {
      "inputs": [
        {
          "internalType": "uint256",
          "name": "word",
          "type": "uint256"
        },
        {
          "internalType": "address",
          "name": "from",
          "type": "address"
        }
      ],
      "name": "submitWord",
      "outputs": [
        {
          "internalType": "bool",
          "name": "",
          "type": "bool"
        }
      ],
      "stateMutability": "nonpayable",
      "type": "function"
    },
    {
      "inputs": [],
      "name": "symbol",
      "outputs": [
        {
          "internalType": "string",
          "name": "",
          "type": "string"
        }
      ],
      "stateMutability": "view",
      "type": "function"
    },
    {
      "inputs": [],
      "name": "totalSupply",
      "outputs": [
        {
          "internalType": "uint256",
          "name": "",
          "type": "uint256"
        }
      ],
      "stateMutability": "view",
      "type": "function"
    },
    {
      "inputs": [
        {
          "internalType": "address",
          "name": "to",
          "type": "address"
        },
        {
          "internalType": "uint256",
          "name": "amount",
          "type": "uint256"
        }
      ],
      "name": "transfer",
      "outputs": [
        {
          "internalType": "bool",
          "name": "",
          "type": "bool"
        }
      ],
      "stateMutability": "nonpayable",
      "type": "function"
    },
    {
      "inputs": [
        {
          "internalType": "address",
          "name": "from",
          "type": "address"
        },
        {
          "internalType": "address",
          "name": "to",
          "type": "address"
        },
        {
          "internalType": "uint256",
          "name": "amount",
          "type": "uint256"
        }
      ],
      "name": "transferFrom",
      "outputs": [
        {
          "internalType": "bool",
          "name": "",
          "type": "bool"
        }
      ],
      "stateMutability": "nonpayable",
      "type": "function"
    }
  ],
  "bytecode": "0x60806040523480156200001157600080fd5b506040518060400160405280600881526020017f4372797074646c650000000000000000000000000000000000000000000000008152506040518060400160405280600381526020017f54444c000000000000000000000000000000000000000000000000000000000081525081600390805190602001906200009692919062000165565b508060049080519060200190620000af92919062000165565b5050506933c0cf800f000f00ff006005819055506933c0cf800f000f00ff00600681905550426007819055506c100000000000000000000000006d04ee2d6d415b85acef810000000062000104919062000272565b60026d04ee2d6d415b85acef810000000062000121919062000272565b6200012d919062000215565b6008819055506009624ad012908060018154018082558091505060019003906000526020600020016000909190919091505562000377565b8280546200017390620002b4565b90600052602060002090601f016020900481019282620001975760008555620001e3565b82601f10620001b257805160ff1916838001178555620001e3565b82800160010185558215620001e3579182015b82811115620001e2578251825591602001919060010190620001c5565b5b509050620001f29190620001f6565b5090565b5b8082111562000211576000816000905550600101620001f7565b5090565b60006200022282620002aa565b91506200022f83620002aa565b9250827fffffffffffffffffffffffffffffffffffffffffffffffffffffffffffffffff03821115620002675762000266620002ea565b5b828201905092915050565b60006200027f82620002aa565b91506200028c83620002aa565b9250826200029f576200029e62000319565b5b828204905092915050565b6000819050919050565b60006002820490506001821680620002cd57607f821691505b60208210811415620002e457620002e362000348565b5b50919050565b7f4e487b7100000000000000000000000000000000000000000000000000000000600052601160045260246000fd5b7f4e487b7100000000000000000000000000000000000000000000000000000000600052601260045260246000fd5b7f4e487b7100000000000000000000000000000000000000000000000000000000600052602260045260246000fd5b61331080620003876000396000f3fe608060405234801561001057600080fd5b50600436106101005760003560e01c806370a0823111610097578063a457c2d711610066578063a457c2d7146102d9578063a9059cbb14610309578063dd62ed3e14610339578063ddd5e1b21461036957610100565b806370a082311461022b57806386cb05ae1461025b5780639189fec11461028b57806395d89b41146102bb57610100565b8063313ce567116100d3578063313ce567146101a157806339509351146101bf5780633d18b912146101ef578063412250711461020d57610100565b806306fdde0314610105578063095ea7b31461012357806318160ddd1461015357806323b872dd14610171575b600080fd5b61010d610399565b60405161011a91906125dc565b60405180910390f35b61013d600480360381019061013891906122c6565b61042b565b60405161014a91906125c1565b60405180910390f35b61015b61044e565b604051610168919061273e565b60405180910390f35b61018b60048036038101906101869190612277565b610458565b60405161019891906125c1565b60405180910390f35b6101a9610487565b6040516101b69190612759565b60405180910390f35b6101d960048036038101906101d491906122c6565b610490565b6040516101e691906125c1565b60405180910390f35b6101f76104c7565b604051610204919061273e565b60405180910390f35b610215610530565b604051610222919061273e565b60405180910390f35b61024560048036038101906102409190612212565b6106f5565b604051610252919061273e565b60405180910390f35b6102756004803603810190610270919061232b565b61073d565b60405161028291906125c1565b60405180910390f35b6102a560048036038101906102a09190612302565b6107c2565b6040516102b291906125c1565b60405180910390f35b6102c36107e6565b6040516102d091906125dc565b60405180910390f35b6102f360048036038101906102ee91906122c6565b610878565b60405161030091906125c1565b60405180910390f35b610323600480360381019061031e91906122c6565b6108ef565b60405161033091906125c1565b60405180910390f35b610353600480360381019061034e919061223b565b610912565b604051610360919061273e565b60405180910390f35b610383600480360381019061037e919061232b565b610999565b60405161039091906125c1565b60405180910390f35b6060600380546103a890612e14565b80601f01602080910402602001604051908101604052809291908181526020018280546103d490612e14565b80156104215780601f106103f657610100808354040283529160200191610421565b820191906000526020600020905b81548152906001019060200180831161040457829003601f168201915b5050505050905090565b600080610436610b84565b9050610443818585610b8c565b600191505092915050565b6000600254905090565b600080610463610b84565b9050610470858285610d57565b61047b858585610de3565b60019150509392505050565b60006012905090565b60008061049b610b84565b90506104bc8185856104ad8589610912565b6104b7919061285c565b610b8c565b600191505092915050565b6000806001600b60006104d8611064565b8152602001908152602001600020805490506104f4919061285c565b600261050091906129d7565b6d04ee2d6d415b85acef81000000006105199190612953565b9050600081141561052957600190505b8091505090565b60008060008060008061054242611082565b508095508196508297508398508499505050505050600060058260ff16603c8560ff1602018161059b577f4e487b7100000000000000000000000000000000000000000000000000000000600052601260045260246000fd5b0490506105aa8360ff166110f3565b6105b68260ff166110f3565b6105bf816110f3565b600060075442106105d45760055490506105da565b60065490505b60008060008084905060008590505b6000811461060657600181038116905083806001019450506105e9565b83871161061757868403965061061c565b600096505b60028481610653577f4e487b7100000000000000000000000000000000000000000000000000000000600052601260045260246000fd5b0493505b868510156106e3578190508460028502038560018701860203816106a4577f4e487b7100000000000000000000000000000000000000000000000000000000600052601260045260246000fd5b0692505b60018311156106c75760018103811690508280600190039350506106a8565b8081600183031816905080821891508480600101955050610657565b819c5050505050505050505050505090565b60008060008373ffffffffffffffffffffffffffffffffffffffff1673ffffffffffffffffffffffffffffffffffffffff168152602001908152602001600020549050919050565b6000600a600084815260200190815260200160002060009054906101000a900460ff16806107745750600854610772836106f5565b105b1561078257600090506107bc565b60098390806001815401808255809150506001900390600052602060002001600090919091909150556107b78260085461118c565b600190505b92915050565b6000816107cd611064565b14156107dc57600190506107e1565b600090505b919050565b6060600480546107f590612e14565b80601f016020809104026020016040519081016040528092919081815260200182805461082190612e14565b801561086e5780601f106108435761010080835404028352916020019161086e565b820191906000526020600020905b81548152906001019060200180831161085157829003601f168201915b5050505050905090565b600080610883610b84565b905060006108918286610912565b9050838110156108d6576040517f08c379a00000000000000000000000000000000000000000000000000000000081526004016108cd906126fe565b60405180910390fd5b6108e38286868403610b8c565b60019250505092915050565b6000806108fa610b84565b9050610907818585610de3565b600191505092915050565b6000600160008473ffffffffffffffffffffffffffffffffffffffff1673ffffffffffffffffffffffffffffffffffffffff16815260200190815260200160002060008373ffffffffffffffffffffffffffffffffffffffff1673ffffffffffffffffffffffffffffffffffffffff16815260200190815260200160002054905092915050565b60006109a4836107c2565b8015610a505750610a4e82600b60006005548152602001908152602001600020805480602002602001604051908101604052809291908181526020018280548015610a4457602002820191906000526020600020905b8160009054906101000a900473ffffffffffffffffffffffffffffffffffffffff1673ffffffffffffffffffffffffffffffffffffffff16815260200190600101908083116109fa575b5050505050611363565b155b15610b7957610a6682610a616104c7565b611411565b6000600b600060055481526020019081526020016000208054905011610b7857610a8e611064565b600681905550600b60006005548152602001908152602001600020829080600181540180825580915050600190039060005260206000200160009091909190916101000a81548173ffffffffffffffffffffffffffffffffffffffff021916908373ffffffffffffffffffffffffffffffffffffffff160217905550610b12611571565b600581905550600080600080600080610b2a42611082565b809650819750829850839950849a50859b50505050505050610b638661ffff168660ff16600187610b5b91906128b2565b60ff1661175e565b60078190555060019650505050505050610b7e565b5b600090505b92915050565b600033905090565b600073ffffffffffffffffffffffffffffffffffffffff168373ffffffffffffffffffffffffffffffffffffffff161415610bfc576040517f08c379a0000000000000000000000000000000000000000000000000000000008152600401610bf3906126de565b60405180910390fd5b600073ffffffffffffffffffffffffffffffffffffffff168273ffffffffffffffffffffffffffffffffffffffff161415610c6c576040517f08c379a0000000000000000000000000000000000000000000000000000000008152600401610c639061263e565b60405180910390fd5b80600160008573ffffffffffffffffffffffffffffffffffffffff1673ffffffffffffffffffffffffffffffffffffffff16815260200190815260200160002060008473ffffffffffffffffffffffffffffffffffffffff1673ffffffffffffffffffffffffffffffffffffffff168152602001908152602001600020819055508173ffffffffffffffffffffffffffffffffffffffff168373ffffffffffffffffffffffffffffffffffffffff167f8c5be1e5ebec7d5bd14f71427d1e84f3dd0314c0f7b2291e5b200ac8c7c3b92583604051610d4a919061273e565b60405180910390a3505050565b6000610d638484610912565b90507fffffffffffffffffffffffffffffffffffffffffffffffffffffffffffffffff8114610ddd5781811015610dcf576040517f08c379a0000000000000000000000000000000000000000000000000000000008152600401610dc69061265e565b60405180910390fd5b610ddc8484848403610b8c565b5b50505050565b600073ffffffffffffffffffffffffffffffffffffffff168373ffffffffffffffffffffffffffffffffffffffff161415610e53576040517f08c379a0000000000000000000000000000000000000000000000000000000008152600401610e4a906126be565b60405180910390fd5b600073ffffffffffffffffffffffffffffffffffffffff168273ffffffffffffffffffffffffffffffffffffffff161415610ec3576040517f08c379a0000000000000000000000000000000000000000000000000000000008152600401610eba906125fe565b60405180910390fd5b610ece838383611782565b60008060008573ffffffffffffffffffffffffffffffffffffffff1673ffffffffffffffffffffffffffffffffffffffff16815260200190815260200160002054905081811015610f54576040517f08c379a0000000000000000000000000000000000000000000000000000000008152600401610f4b9061267e565b60405180910390fd5b8181036000808673ffffffffffffffffffffffffffffffffffffffff1673ffffffffffffffffffffffffffffffffffffffff16815260200190815260200160002081905550816000808573ffffffffffffffffffffffffffffffffffffffff1673ffffffffffffffffffffffffffffffffffffffff1681526020019081526020016000206000828254610fe7919061285c565b925050819055508273ffffffffffffffffffffffffffffffffffffffff168473ffffffffffffffffffffffffffffffffffffffff167fddf252ad1be2c89b69c2b068fc378daa952ba7f163c4a11628f55a4df523b3ef8460405161104b919061273e565b60405180910390a361105e848484611787565b50505050565b6000600754421061107957600554905061107f565b60065490505b90565b60008060008060008060008790506110998161178c565b80985081925050506110ab81886119fb565b80975081925050506110bc81611dcd565b80965081925050506110cd81611e17565b80955081925050506110de81611e2f565b80945081925050508091505091939550919395565b61118981604051602401611107919061273e565b6040516020818303038152906040527ff82c50f1000000000000000000000000000000000000000000000000000000007bffffffffffffffffffffffffffffffffffffffffffffffffffffffff19166020820180517bffffffffffffffffffffffffffffffffffffffffffffffffffffffff8381831617835250505050611e46565b50565b600073ffffffffffffffffffffffffffffffffffffffff168273ffffffffffffffffffffffffffffffffffffffff1614156111fc576040517f08c379a00000000000000000000000000000000000000000000000000000000081526004016111f39061269e565b60405180910390fd5b61120882600083611782565b60008060008473ffffffffffffffffffffffffffffffffffffffff1673ffffffffffffffffffffffffffffffffffffffff1681526020019081526020016000205490508181101561128e576040517f08c379a00000000000000000000000000000000000000000000000000000000081526004016112859061261e565b60405180910390fd5b8181036000808573ffffffffffffffffffffffffffffffffffffffff1673ffffffffffffffffffffffffffffffffffffffff1681526020019081526020016000208190555081600260008282546112e59190612cfa565b92505081905550600073ffffffffffffffffffffffffffffffffffffffff168373ffffffffffffffffffffffffffffffffffffffff167fddf252ad1be2c89b69c2b068fc378daa952ba7f163c4a11628f55a4df523b3ef8460405161134a919061273e565b60405180910390a361135e83600084611787565b505050565b600080600090505b8251811015611405578373ffffffffffffffffffffffffffffffffffffffff168382815181106113c4577f4e487b7100000000000000000000000000000000000000000000000000000000600052603260045260246000fd5b602002602001015173ffffffffffffffffffffffffffffffffffffffff1614156113f257600191505061140b565b80806113fd90612e46565b91505061136b565b50600090505b92915050565b600073ffffffffffffffffffffffffffffffffffffffff168273ffffffffffffffffffffffffffffffffffffffff161415611481576040517f08c379a00000000000000000000000000000000000000000000000000000000081526004016114789061271e565b60405180910390fd5b61148d60008383611782565b806002600082825461149f919061285c565b92505081905550806000808473ffffffffffffffffffffffffffffffffffffffff1673ffffffffffffffffffffffffffffffffffffffff16815260200190815260200160002060008282546114f4919061285c565b925050819055508173ffffffffffffffffffffffffffffffffffffffff16600073ffffffffffffffffffffffffffffffffffffffff167fddf252ad1be2c89b69c2b068fc378daa952ba7f163c4a11628f55a4df523b3ef83604051611559919061273e565b60405180910390a361156d60008383611787565b5050565b60006001600980549050111561175657600060096103e7611590611e6f565b60026009805490506115a29190612cfa565b6115ac9190612c0c565b6115b69190612953565b815481106115ed577f4e487b7100000000000000000000000000000000000000000000000000000000600052603260045260246000fd5b906000526020600020015490506009600160098054905061160e9190612cfa565b81548110611645577f4e487b7100000000000000000000000000000000000000000000000000000000600052603260045260246000fd5b906000526020600020015460096103e761165d611e6f565b600260098054905061166f9190612cfa565b6116799190612c0c565b6116839190612953565b815481106116ba577f4e487b7100000000000000000000000000000000000000000000000000000000600052603260045260246000fd5b9060005260206000200181905550600960016009805490506116dc9190612cfa565b81548110611713577f4e487b7100000000000000000000000000000000000000000000000000000000600052603260045260246000fd5b90600052602060002001600090556001600a600083815260200190815260200160002060006101000a81548160ff0219169083151502179055508091505061175b565b600090505b90565b60006201518061176f858585611f67565b6117799190612c0c565b90509392505050565b505050565b505050565b6000806000808493506107b292506301e1338060026117ab9190612c0c565b8410156117f4576301e13380846117c29190612953565b91506301e13380826117d49190612c0c565b846117df9190612cfa565b935081836117ed9190612824565b92506119f4565b6301e1338060026118059190612c0c565b846118109190612cfa565b93506107b492506334aadc808410611923576334aadc80846118329190612cfa565b9350601c836118419190612824565b92506402f0605980846118549190612953565b91506402f0605980826118679190612c0c565b846118729190612cfa565b9350610190826118829190612c0c565b8361188d9190612824565b9250611898836120c6565b90508063ffffffff1684106118cb578063ffffffff16846118b99190612cfa565b93506001836118c89190612824565b92505b6118d4836120fd565b6119225763bc17c200846118e89190612953565b915063bc17c200826118fa9190612c0c565b846119059190612cfa565b93506064826119149190612c0c565b8361191f9190612824565b92505b5b6307861f80846119339190612953565b91506307861f80826119459190612c0c565b846119509190612cfa565b935060048261195f9190612c0c565b8361196a9190612824565b9250611975836120c6565b90508063ffffffff1684106119a8578063ffffffff16846119969190612cfa565b93506001836119a59190612824565b92505b6119b1836120fd565b6119f3576301e13380846119c59190612953565b91506301e13380826119d79190612c0c565b846119e29190612cfa565b935081836119f09190612824565b92505b5b5050915091565b600080611a066121a2565b611a0e6121c5565b859350611a1a856120fd565b15611b8557604051806101a00160405280600060ff168152602001601f60ff168152602001601d60ff168152602001601f60ff168152602001601e60ff168152602001601f60ff168152602001601e60ff168152602001601f60ff168152602001601f60ff168152602001601e60ff168152602001601f60ff168152602001601e60ff168152602001601f60ff168152509150604051806101a00160405280600063ffffffff1681526020016228de8063ffffffff168152602001624f1a0063ffffffff1681526020016277f88063ffffffff168152602001629f858063ffffffff16815260200162c8640063ffffffff16815260200162eff10063ffffffff168152602001630118cf8063ffffffff168152602001630141ae0063ffffffff1681526020016301693b0063ffffffff168152602001630192198063ffffffff1681526020016301b9a68063ffffffff1681526020016301e2850063ffffffff168152509050611ce7565b604051806101a00160405280600060ff168152602001601f60ff168152602001601c60ff168152602001601f60ff168152602001601e60ff168152602001601f60ff168152602001601e60ff168152602001601f60ff168152602001601f60ff168152602001601e60ff168152602001601f60ff168152602001601e60ff168152602001601f60ff168152509150604051806101a00160405280600063ffffffff1681526020016228de8063ffffffff168152602001624dc88063ffffffff1681526020016276a70063ffffffff168152602001629e340063ffffffff16815260200162c7128063ffffffff16815260200162ee9f8063ffffffff1681526020016301177e0063ffffffff1681526020016301405c8063ffffffff168152602001630167e98063ffffffff168152602001630190c80063ffffffff1681526020016301b8550063ffffffff1681526020016301e1338063ffffffff1681525090505b6000600190505b600d8160ff161015611dc357818160ff16600d8110611d36577f4e487b7100000000000000000000000000000000000000000000000000000000600052603260045260246000fd5b602002015163ffffffff16851015611db05780935081600182611d599190612d2e565b60ff16600d8110611d93577f4e487b7100000000000000000000000000000000000000000000000000000000600052603260045260246000fd5b602002015163ffffffff1685611da99190612cfa565b9450611dc3565b8080611dbb90612e8f565b915050611cee565b5050509250929050565b60008060008392506201518083611de49190612953565b90506201518081611df59190612c0c565b83611e009190612cfa565b9250600181611e0f919061285c565b915050915091565b600080611e2683610e10612168565b91509150915091565b600080611e3d83603c612168565b91509150915091565b60008151905060006a636f6e736f6c652e6c6f679050602083016000808483855afa5050505050565b600080434233604051602001611e859190612570565b6040516020818303038152906040528051906020012060001c611ea89190612953565b454241604051602001611ebb919061258b565b6040516020818303038152906040528051906020012060001c611ede9190612953565b4442611eea919061285c565b611ef4919061285c565b611efe919061285c565b611f08919061285c565b611f12919061285c565b604051602001611f2291906125a6565b6040516020818303038152906040528051906020012060001c90506103e88082611f4c9190612953565b611f569190612c0c565b81611f619190612cfa565b91505090565b60006107b2841015611f7857600080fd5b600084905060008490506000849050600062253d8c60046064600c600e87611fa09190612c66565b611faa91906128e9565b61132488611fb89190612790565b611fc29190612790565b611fcc91906128e9565b6003611fd89190612af5565b611fe291906128e9565b600c80600c600e88611ff49190612c66565b611ffe91906128e9565b6120089190612af5565b6002876120159190612c66565b61201f9190612c66565b61016f61202c9190612af5565b61203691906128e9565b6004600c600e886120479190612c66565b61205191906128e9565b6112c08961205f9190612790565b6120699190612790565b6105b56120769190612af5565b61208091906128e9565b617d4b8661208e9190612c66565b6120989190612790565b6120a29190612790565b6120ac9190612c66565b6120b69190612c66565b9050809450505050509392505050565b60006120d1826120fd565b156120f057620151806301e133806120e9919061285c565b90506120f8565b6301e1338090505b919050565b60008060048361210d9190612ef9565b61ffff161461211f5760009050612163565b60006101908361212f9190612ef9565b61ffff161480612150575060006064836121499190612ef9565b61ffff1614155b1561215e5760019050612163565b600090505b919050565b6000806000849250838361217c9190612953565b9050838161218a9190612c0c565b836121959190612cfa565b9250809150509250929050565b604051806101a00160405280600d90602082028036833780820191505090505090565b604051806101a00160405280600d90602082028036833780820191505090505090565b6000813590506121f7816132ac565b92915050565b60008135905061220c816132c3565b92915050565b60006020828403121561222457600080fd5b6000612232848285016121e8565b91505092915050565b6000806040838503121561224e57600080fd5b600061225c858286016121e8565b925050602061226d858286016121e8565b9150509250929050565b60008060006060848603121561228c57600080fd5b600061229a868287016121e8565b93505060206122ab868287016121e8565b92505060406122bc868287016121fd565b9150509250925092565b600080604083850312156122d957600080fd5b60006122e7858286016121e8565b92505060206122f8858286016121fd565b9150509250929050565b60006020828403121561231457600080fd5b6000612322848285016121fd565b91505092915050565b6000806040838503121561233e57600080fd5b600061234c858286016121fd565b925050602061235d858286016121e8565b9150509250929050565b61237861237382612d74565b612ecb565b82525050565b61238f61238a82612d62565b612eb9565b82525050565b61239e81612d86565b82525050565b60006123af82612774565b6123b9818561277f565b93506123c9818560208601612de1565b6123d281612fb7565b840191505092915050565b60006123ea60238361277f565b91506123f582612fe2565b604082019050919050565b600061240d60228361277f565b915061241882613031565b604082019050919050565b600061243060228361277f565b915061243b82613080565b604082019050919050565b6000612453601d8361277f565b915061245e826130cf565b602082019050919050565b600061247660268361277f565b9150612481826130f8565b604082019050919050565b600061249960218361277f565b91506124a482613147565b604082019050919050565b60006124bc60258361277f565b91506124c782613196565b604082019050919050565b60006124df60248361277f565b91506124ea826131e5565b604082019050919050565b600061250260258361277f565b915061250d82613234565b604082019050919050565b6000612525601f8361277f565b915061253082613283565b602082019050919050565b61254481612dca565b82525050565b61255b61255682612dca565b612eef565b82525050565b61256a81612dd4565b82525050565b600061257c828461237e565b60148201915081905092915050565b60006125978284612367565b60148201915081905092915050565b60006125b2828461254a565b60208201915081905092915050565b60006020820190506125d66000830184612395565b92915050565b600060208201905081810360008301526125f681846123a4565b905092915050565b60006020820190508181036000830152612617816123dd565b9050919050565b6000602082019050818103600083015261263781612400565b9050919050565b6000602082019050818103600083015261265781612423565b9050919050565b6000602082019050818103600083015261267781612446565b9050919050565b6000602082019050818103600083015261269781612469565b9050919050565b600060208201905081810360008301526126b78161248c565b9050919050565b600060208201905081810360008301526126d7816124af565b9050919050565b600060208201905081810360008301526126f7816124d2565b9050919050565b60006020820190508181036000830152612717816124f5565b9050919050565b6000602082019050818103600083015261273781612518565b9050919050565b6000602082019050612753600083018461253b565b92915050565b600060208201905061276e6000830184612561565b92915050565b600081519050919050565b600082825260208201905092915050565b600061279b82612d92565b91506127a683612d92565b9250817f7fffffffffffffffffffffffffffffffffffffffffffffffffffffffffffffff038313600083121516156127e1576127e0612f2a565b5b817f800000000000000000000000000000000000000000000000000000000000000003831260008312161561281957612818612f2a565b5b828201905092915050565b600061282f82612d9c565b915061283a83612d9c565b92508261ffff0382111561285157612850612f2a565b5b828201905092915050565b600061286782612dca565b915061287283612dca565b9250827fffffffffffffffffffffffffffffffffffffffffffffffffffffffffffffffff038211156128a7576128a6612f2a565b5b828201905092915050565b60006128bd82612dd4565b91506128c883612dd4565b92508260ff038211156128de576128dd612f2a565b5b828201905092915050565b60006128f482612d92565b91506128ff83612d92565b92508261290f5761290e612f59565b5b600160000383147f80000000000000000000000000000000000000000000000000000000000000008314161561294857612947612f2a565b5b828205905092915050565b600061295e82612dca565b915061296983612dca565b92508261297957612978612f59565b5b828204905092915050565b6000808291508390505b60018511156129ce578086048111156129aa576129a9612f2a565b5b60018516156129b95780820291505b80810290506129c785612fd5565b945061298e565b94509492505050565b60006129e282612dca565b91506129ed83612dca565b9250612a1a7fffffffffffffffffffffffffffffffffffffffffffffffffffffffffffffffff8484612a22565b905092915050565b600082612a325760019050612aee565b81612a405760009050612aee565b8160018114612a565760028114612a6057612a8f565b6001915050612aee565b60ff841115612a7257612a71612f2a565b5b8360020a915084821115612a8957612a88612f2a565b5b50612aee565b5060208310610133831016604e8410600b8410161715612ac45782820a905083811115612abf57612abe612f2a565b5b612aee565b612ad18484846001612984565b92509050818404811115612ae857612ae7612f2a565b5b81810290505b9392505050565b6000612b0082612d92565b9150612b0b83612d92565b9250827f7fffffffffffffffffffffffffffffffffffffffffffffffffffffffffffffff0482116000841360008413161615612b4a57612b49612f2a565b5b817f80000000000000000000000000000000000000000000000000000000000000000583126000841260008413161615612b8757612b86612f2a565b5b827f80000000000000000000000000000000000000000000000000000000000000000582126000841360008412161615612bc457612bc3612f2a565b5b827f7fffffffffffffffffffffffffffffffffffffffffffffffffffffffffffffff0582126000841260008412161615612c0157612c00612f2a565b5b828202905092915050565b6000612c1782612dca565b9150612c2283612dca565b9250817fffffffffffffffffffffffffffffffffffffffffffffffffffffffffffffffff0483118215151615612c5b57612c5a612f2a565b5b828202905092915050565b6000612c7182612d92565b9150612c7c83612d92565b9250827f800000000000000000000000000000000000000000000000000000000000000001821260008412151615612cb757612cb6612f2a565b5b827f7fffffffffffffffffffffffffffffffffffffffffffffffffffffffffffffff018213600084121615612cef57612cee612f2a565b5b828203905092915050565b6000612d0582612dca565b9150612d1083612dca565b925082821015612d2357612d22612f2a565b5b828203905092915050565b6000612d3982612dd4565b9150612d4483612dd4565b925082821015612d5757612d56612f2a565b5b828203905092915050565b6000612d6d82612daa565b9050919050565b6000612d7f82612daa565b9050919050565b60008115159050919050565b6000819050919050565b600061ffff82169050919050565b600073ffffffffffffffffffffffffffffffffffffffff82169050919050565b6000819050919050565b600060ff82169050919050565b60005b83811015612dff578082015181840152602081019050612de4565b83811115612e0e576000848401525b50505050565b60006002820490506001821680612e2c57607f821691505b60208210811415612e4057612e3f612f88565b5b50919050565b6000612e5182612dca565b91507fffffffffffffffffffffffffffffffffffffffffffffffffffffffffffffffff821415612e8457612e83612f2a565b5b600182019050919050565b6000612e9a82612dd4565b915060ff821415612eae57612ead612f2a565b5b600182019050919050565b6000612ec482612edd565b9050919050565b6000612ed682612edd565b9050919050565b6000612ee882612fc8565b9050919050565b6000819050919050565b6000612f0482612d9c565b9150612f0f83612d9c565b925082612f1f57612f1e612f59565b5b828206905092915050565b7f4e487b7100000000000000000000000000000000000000000000000000000000600052601160045260246000fd5b7f4e487b7100000000000000000000000000000000000000000000000000000000600052601260045260246000fd5b7f4e487b7100000000000000000000000000000000000000000000000000000000600052602260045260246000fd5b6000601f19601f8301169050919050565b60008160601b9050919050565b60008160011c9050919050565b7f45524332303a207472616e7366657220746f20746865207a65726f206164647260008201527f6573730000000000000000000000000000000000000000000000000000000000602082015250565b7f45524332303a206275726e20616d6f756e7420657863656564732062616c616e60008201527f6365000000000000000000000000000000000000000000000000000000000000602082015250565b7f45524332303a20617070726f766520746f20746865207a65726f20616464726560008201527f7373000000000000000000000000000000000000000000000000000000000000602082015250565b7f45524332303a20696e73756666696369656e7420616c6c6f77616e6365000000600082015250565b7f45524332303a207472616e7366657220616d6f756e742065786365656473206260008201527f616c616e63650000000000000000000000000000000000000000000000000000602082015250565b7f45524332303a206275726e2066726f6d20746865207a65726f2061646472657360008201527f7300000000000000000000000000000000000000000000000000000000000000602082015250565b7f45524332303a207472616e736665722066726f6d20746865207a65726f20616460008201527f6472657373000000000000000000000000000000000000000000000000000000602082015250565b7f45524332303a20617070726f76652066726f6d20746865207a65726f2061646460008201527f7265737300000000000000000000000000000000000000000000000000000000602082015250565b7f45524332303a2064656372656173656420616c6c6f77616e63652062656c6f7760008201527f207a65726f000000000000000000000000000000000000000000000000000000602082015250565b7f45524332303a206d696e7420746f20746865207a65726f206164647265737300600082015250565b6132b581612d62565b81146132c057600080fd5b50565b6132cc81612dca565b81146132d757600080fd5b5056fea26469706673582212206304eab8e3547908e8e4c347e0d34661e22fce7ae6a2ffced66c4629fcced1d264736f6c63430008040033",
  "linkReferences": {},
  "deployedLinkReferences": {}
}